{
  "_format": "hh-sol-artifact-1",
  "contractName": "AgriDataRegistry",
  "sourceName": "src/AgriDataRegistry.sol",
  "abi": [
    {
      "inputs": [],
      "stateMutability": "nonpayable",
      "type": "constructor"
    },
    {
      "anonymous": false,
      "inputs": [
        {
          "indexed": true,
          "internalType": "bytes32",
          "name": "batchId",
          "type": "bytes32"
        },
        {
          "indexed": false,
          "internalType": "bytes32",
          "name": "merkleRoot",
          "type": "bytes32"
        },
        {
          "indexed": false,
          "internalType": "uint256",
          "name": "timestamp",
          "type": "uint256"
        },
        {
          "indexed": true,
          "internalType": "address",
          "name": "relayer",
          "type": "address"
        }
      ],
      "name": "BatchRegistered",
      "type": "event"
    },
    {
      "anonymous": false,
      "inputs": [
        {
          "indexed": true,
          "internalType": "address",
          "name": "relayer",
          "type": "address"
        }
      ],
      "name": "RelayerAuthorized",
      "type": "event"
    },
    {
      "anonymous": false,
      "inputs": [
        {
          "indexed": true,
          "internalType": "address",
          "name": "relayer",
          "type": "address"
        }
      ],
      "name": "RelayerRevoked",
      "type": "event"
    },
    {
      "inputs": [
        {
          "internalType": "address",
          "name": "relayer",
          "type": "address"
        }
      ],
      "name": "authorizeRelayer",
      "outputs": [],
      "stateMutability": "nonpayable",
      "type": "function"
    },
    {
      "inputs": [
        {
          "internalType": "address",
          "name": "",
          "type": "address"
        }
      ],
      "name": "authorizedRelayers",
      "outputs": [
        {
          "internalType": "bool",
          "name": "",
          "type": "bool"
        }
      ],
      "stateMutability": "view",
      "type": "function"
    },
    {
      "inputs": [
        {
          "internalType": "bytes32",
          "name": "",
          "type": "bytes32"
        }
      ],
      "name": "batchRoots",
      "outputs": [
        {
          "internalType": "bytes32",
          "name": "",
          "type": "bytes32"
        }
      ],
      "stateMutability": "view",
      "type": "function"
    },
    {
      "inputs": [
        {
          "internalType": "bytes32",
          "name": "",
          "type": "bytes32"
        }
      ],
      "name": "batchTimestamps",
      "outputs": [
        {
          "internalType": "uint256",
          "name": "",
          "type": "uint256"
        }
      ],
      "stateMutability": "view",
      "type": "function"
    },
    {
      "inputs": [
        {
          "internalType": "bytes32",
          "name": "batchId",
          "type": "bytes32"
        }
      ],
      "name": "getBatchRoot",
      "outputs": [
        {
          "internalType": "bytes32",
          "name": "",
          "type": "bytes32"
        }
      ],
      "stateMutability": "view",
      "type": "function"
    },
    {
      "inputs": [
        {
          "internalType": "bytes32",
          "name": "batchId",
          "type": "bytes32"
        }
      ],
      "name": "getBatchTimestamp",
      "outputs": [
        {
          "internalType": "uint256",
          "name": "",
          "type": "uint256"
        }
      ],
      "stateMutability": "view",
      "type": "function"
    },
    {
      "inputs": [],
      "name": "owner",
      "outputs": [
        {
          "internalType": "address",
          "name": "",
          "type": "address"
        }
      ],
      "stateMutability": "view",
      "type": "function"
    },
    {
      "inputs": [
        {
          "internalType": "bytes32",
          "name": "batchId",
          "type": "bytes32"
        },
        {
          "internalType": "bytes32",
          "name": "merkleRoot",
          "type": "bytes32"
        }
      ],
      "name": "registerDataBatch",
      "outputs": [],
      "stateMutability": "nonpayable",
      "type": "function"
    },
    {
      "inputs": [
        {
          "internalType": "address",
          "name": "relayer",
          "type": "address"
        }
      ],
      "name": "revokeRelayer",
      "outputs": [],
      "stateMutability": "nonpayable",
      "type": "function"
    },
    {
      "inputs": [
        {
          "internalType": "address",
          "name": "newOwner",
          "type": "address"
        }
      ],
      "name": "transferOwnership",
      "outputs": [],
      "stateMutability": "nonpayable",
      "type": "function"
    },
    {
      "inputs": [
        {
          "internalType": "bytes32",
          "name": "batchId",
          "type": "bytes32"
        },
        {
          "internalType": "bytes32",
          "name": "leaf",
          "type": "bytes32"
        },
        {
          "internalType": "bytes32[]",
          "name": "proof",
          "type": "bytes32[]"
        }
      ],
      "name": "verifyDataInclusion",
      "outputs": [
        {
          "internalType": "bool",
          "name": "",
          "type": "bool"
        }
      ],
      "stateMutability": "view",
      "type": "function"
    }
  ],
  "bytecode": "0x608060405234801561001057600080fd5b50600280546001600160a01b03191633908117909155600081815260036020526040808220805460ff19166001179055517f34aff43ff674361fe2288d5bfdd1c3ee4c20de76d41536ac0e195c6b59552ff59190a2610825806100746000396000f3fe608060405234801561001057600080fd5b50600436106100a95760003560e01c8063b0134bc011610071578063b0134bc014610174578063e7a315a414610187578063f2fde38b146101a7578063f4f64bab146101ba578063f899b23c146101cd578063fc34eabc146101e057600080fd5b806321ef5f8b146100ae57806329e295c5146100c35780633acba8ec146100fb57806374bd3479146101295780638da5cb5b14610149575b600080fd5b6100c16100bc366004610683565b610200565b005b6100e66100d1366004610683565b60036020526000908152604090205460ff1681565b60405190151581526020015b60405180910390f35b61011b6101093660046106b3565b60009081526020819052604090205490565b6040519081526020016100f2565b61011b6101373660046106b3565b60016020526000908152604090205481565b60025461015c906001600160a01b031681565b6040516001600160a01b0390911681526020016100f2565b6100c16101823660046106cc565b61027c565b61011b6101953660046106b3565b60006020819052908152604090205481565b6100c16101b5366004610683565b6103ea565b6100e66101c83660046106ee565b61047e565b6100c16101db366004610683565b610516565b61011b6101ee3660046106b3565b60009081526001602052604090205490565b6002546001600160a01b031633146102335760405162461bcd60e51b815260040161022a90610771565b60405180910390fd5b6001600160a01b038116600081815260036020526040808220805460ff19169055517f3cec689f527469da1c32e52219a628d3d417c9398fe105d55cb3a628d76762659190a250565b6002546001600160a01b03163314806102a457503360009081526003602052604090205460ff165b6102f05760405162461bcd60e51b815260206004820152601d60248201527f4e6f7420617574686f72697a656420746f207375626d69742064617461000000604482015260640161022a565b6000828152602081905260409020541561034c5760405162461bcd60e51b815260206004820152601860248201527f426174636820616c726561647920726567697374657265640000000000000000604482015260640161022a565b8061038f5760405162461bcd60e51b8152602060048201526013602482015272125b9d985b1a590813595c9adb19481c9bdbdd606a1b604482015260640161022a565b60008281526020818152604080832084905560018252918290204290819055825184815291820152339184917f8a207a4d57d20cdfb546f8d9dc388d6d805177683b0a78c504c7c558c22d809f910160405180910390a35050565b6002546001600160a01b031633146104145760405162461bcd60e51b815260040161022a90610771565b6001600160a01b03811661045c5760405162461bcd60e51b815260206004820152600f60248201526e496e76616c6964206164647265737360881b604482015260640161022a565b600280546001600160a01b0319166001600160a01b0392909216919091179055565b600084815260208190526040812054806104cc5760405162461bcd60e51b815260206004820152600f60248201526e10985d18da081b9bdd08199bdd5b99608a1b604482015260640161022a565b61050c8484808060200260200160405190810160405280939291908181526020018383602002808284376000920191909152508592508991506105d49050565b9695505050505050565b6002546001600160a01b031633146105405760405162461bcd60e51b815260040161022a90610771565b6001600160a01b0381166105885760405162461bcd60e51b815260206004820152600f60248201526e496e76616c6964206164647265737360881b604482015260640161022a565b6001600160a01b038116600081815260036020526040808220805460ff19166001179055517f34aff43ff674361fe2288d5bfdd1c3ee4c20de76d41536ac0e195c6b59552ff59190a250565b600081815b85518110156106785760008682815181106105f6576105f66107b2565b60200260200101519050808311610638576040805160208101859052908101829052606001604051602081830303815290604052805190602001209250610665565b60408051602081018390529081018490526060016040516020818303038152906040528051906020012092505b5080610670816107c8565b9150506105d9565b509092149392505050565b60006020828403121561069557600080fd5b81356001600160a01b03811681146106ac57600080fd5b9392505050565b6000602082840312156106c557600080fd5b5035919050565b600080604083850312156106df57600080fd5b50508035926020909101359150565b6000806000806060858703121561070457600080fd5b8435935060208501359250604085013567ffffffffffffffff8082111561072a57600080fd5b818701915087601f83011261073e57600080fd5b81358181111561074d57600080fd5b8860208260051b850101111561076257600080fd5b95989497505060200194505050565b60208082526021908201527f4f6e6c79206f776e65722063616e2063616c6c20746869732066756e6374696f6040820152603760f91b606082015260800190565b634e487b7160e01b600052603260045260246000fd5b6000600182016107e857634e487b7160e01b600052601160045260246000fd5b506001019056fea2646970667358221220d00439ca99275deb9aa366522fdc5cac2c5d916f5ba890d5b4acf7b787cab19c64736f6c63430008140033",
  "linkReferences": {},
  "deployedLinkReferences": {}
}